:0C098F000A08C0F9A4B0999282F8809088
:0E098000E4FFFE0FBF00010EBE01F8BFF4F54C
:01098E002246
:04091700AB07AA067A
:10091B007C007D0A12088C8F828E83AE02AF037C23
:10092B00007D0A12088CE4FBFAC2B1D2B0AF82741C
:10093B00082FF8E6F5A0120980C2B0D2B174082DC9
:10094B00F8E6F5A01209800BBB00010AEB64644AC0
:05095B0070D7020980C5
:10096000E4F512F513AF13AE121209170513E513D0
:0F09700070020512C39464E5126480948040E61F
:01097F002255
:03000000020800F3
:0C080000787FE4F6D8FD758113020847EC
:10088C00C2D5EC30E709B2D5E4C39DFDE49CFCEE87
:10089C0030E715B2D5E4C39FFFE49EFE1208C2C335
:1008AC00E49DFDE49CFC80031208C230D507C3E430
:0608BC009FFFE49EFE22F6
:10080C00020960E493A3F8E493A34003F68001F299
:10081C0008DFF48029E493A3F85407240CC8C333ED
:10082C00C4540F4420C8834004F456800146F6DFBC
:10083C00E4800B010204081020408090098FE47EB4
:10084C00019360BCA3FF543F30E509541FFEE493B1
:10085C00A360010ECF54C025E060A840B8E493A378
:10086C00FAE493A3F8E493A3C8C582C8CAC583CAA3
:10087C00F0A3C8C582C8CAC583CADFE9DEE780BE5B
:01099B00005B
:1008C200BC000BBE0029EF8DF084FFADF022E4CC1A
:1008D200F875F008EF2FFFEE33FEEC33FCEE9DECE3
:1008E200984005FCEE9DFE0FD5F0E9E4CEFD22ED29
:1008F200F8F5F0EE8420D21CFEADF075F008EF2F73
:10090200FFED33FD4007985006D5F0F222C398FD63
:050912000FD5F0EA2200
:00000001FF
